:020000040800F2
:10000000980A00209D010008752900086127000852
:1000100071290008A90200087D35000800000000D1
:10002000000000000000000000000000212C00087B
:10003000750300080000000079290008FD2C000865
:10004000B7010008B7010008B7010008B7010008B0
:10005000B7010008B7010008B7010008B7010008A0
:10006000B7010008B7010008B7010008B701000890
:10007000B7010008B7010008B7010008B701000880
:10008000B7010008B7010008B7010008B701000870
:10009000B7010008B7010008B7010008B701000860
:1000A000B7010008C52D0008B7010008B701000816
:1000B000B7010008B7010008B7010008B701000840
:1000C000B7010008B7010008B7010008B701000830
:1000D000B701000845350008B7010008B70100085E
:1000E000B7010008B7010008B7010008B701000810
:1000F000B7010008B7010008B7010008B701000800
:10010000B7010008B7010008B7010008B7010008EF
:10011000B7010008B7010008B7010008B7010008DF
:10012000AD020008B7010008B7010008B9020008D5
:10013000B7010008B7010008B7010008B7010008BF
:10014000B7010008B7010008B7010008B7010008AF
:10015000B7010008B701000869030008B7010008EB
:10016000B7010008B7010008B7010008B70100088F
:10017000B7010008B7010008B7010008000000003F
:10018000B7010008B7010008DFF80CD000F07AF8DA
:1001900000480047CD390008980A002006488047EB
:1001A00006480047FEE7FEE7FEE7FEE7FEE7FEE75C
:1001B000FEE7FEE7FEE7FEE7B12D00088901000833
:1001C0002DE9F05F0546002092469B46884606468C
:1001D000814640241BE0284641464746224600F01F
:1001E00041F853465A46C01A914110D31146184659
:1001F000224600F028F82D1A67EB01084F462246E8
:100200000120002100F01FF817EB00094E41201ECD
:10021000A4F10104DFDC484631462A464346BDE8E6
:10022000F09FD2B201E000F8012B491EFBD27047CB
:100230000022F6E710B513460A4604461946FFF7B2
:10024000F0FF204610BD202A04DB203A00FA02F11C
:10025000002070479140C2F1200320FA03F31943B4
:1002600090407047202A04DB203A21FA02F0002156
:10027000704721FA02F3D040C2F1200291400843B6
:1002800019467047064C074D06E0E06840F0010350
:1002900094E8070098471034AC42F6D3FFF778FF94
:1002A0007C4400089C440008FEE7000040F29040B7
:1002B000C2F2000000F04EB92DE9F04F83B040F2D9
:1002C000F040C2F2000000F045F940F29040C2F266
:1002D000000000680068C00642D5002440F2B05516
:1002E000C4F202044FF47A76C2F200050DF1080957
:1002F0004FF0FF0A0DF10B0B0DF10A0720464FF4EA
:100300000041002200F0FAFB05208DF80900284684
:100310000DF109014A460123009601F04DF82846E7
:1003200059463A4601238DF80BA0009601F044F897
:100330009DF80A8020464FF40041012200F0DEFBC8
:100340005FEAC870DAD140F25010C2F200000068D3
:1003500003F0FCF920464FF40041012200F0CEFBEF
:1003600003B0BDE8F08F000040F25050C2F2000030
:1003700000F0F0B870470000EFF3108072B600BFD5
:10038000FEE700002DE9F04F87B0002740F2B0559E
:100390000DF1080CC4F202074FF47A74C2F20005A2
:1003A0000DF11809FF260DF11B0A0DF11A0B8CE84F
:1003B0000F0000BF38464FF40041002200F09EFBC2
:1003C00005208DF8190028460DF119014A46012330
:1003D000009400F0F1FF284651465A4601238DF85B
:1003E0001B60009400F0E8FF9DF81A8038464FF437
:1003F0000041012200F082FB5FEAC870DAD1119D52
:10040000002128464FF480724FF4807403F05EFAA6
:1004100095F8FF0001280BD028464FF480714FF467
:10042000807203F053FA95F8FF000024012827D1C9
:1004300040F20C00C2F20000007840F25011C2F20B
:1004400000010C60C0B102982946002202F008FEAB
:1004500003982946012202F003FE0498294602224D
:1004600002F0FEFD05982946032202F0F9FD1098DE
:100470002946042202F0F4FD07B0BDE8F08F00BF6A
:1004800040F20C00C2F20000047040F25010C2F2C0
:100490000000046007B0BDE8F08F000070B5866D05
:1004A000044600F031FB94F8351002292ED10546A0
:1004B0002068216C026822F016020260426922F074
:1004C0008002426109B9A16C19B1016821F00801EB
:1004D0000160016821F0010101600068C00708D0D7
:1004E00000F012FB401B052818D820680068C007E0
:1004F000F6D1E06D3F2101FA00F0B060012084F8F0
:1005000035000020002184F8341070BD8020606523
:100510000120002184F8341070BD00BF20206065E8
:10052000032084F83500002184F8341070BD0000E9
:1005300090F83510022909D1052180F8351000689E
:10054000016821F0010101600020704780214165B0
:1005500001207047F0B581B004460020009040F2C1
:100560001000C2F200000268D4E9166048F2B51328
:1005700037680821C1F64E3381403942A2FB03257A
:100580000CD0226813685B0708D5136823F00403B6
:100590001360B160616D41F001016165012181402D
:1005A000394208D022685269120604D5B160616DE3
:1005B00041F00201616504218140394208D022687E
:1005C0001268920704D5B160616D41F00401616564
:1005D00010218140394217D020680268120713D5D4
:1005E000B16002680168520308D4C90508D40168E3
:1005F00021F008010160216C21B905E008033FD416
:10060000216C09B120468847E16D202000FA01F2F3
:100610003A4241D020680368DB063DD5B26094F8C9
:1006200035300268052B1BD122F0160202604269A8
:1006300022F080024261226C0AB9A26C1AB10268EF
:1006400022F0080202603F208840B060012084F858
:100650003500216D0020002984F8340052D157E084
:100660000168520310D4C90512D4016821F01001A9
:100670000160012084F83500002084F8340007E090
:10068000A16C0029BED1BFE7080301D4616C00E072
:10069000E16B09B120468847606DC8B3606DC00743
:1006A0002ED0052084F835002068A90A026822F0BF
:1006B00001020260009A01328A4200921AD802684E
:1006C000D20717D0009A01328A42009212D80268EB
:1006D000D2070FD0009A01328A4200920AD80268EB
:1006E000D20707D0009A01328A42009202D80268EB
:1006F000D207DFD1012084F83500002084F83400CF
:10070000E16C29B1204601B0BDE8F040084700BFC8
:1007100001B0F0BD2DE9F041044600F0F5F9002CE0
:100720004ED00546022084F835000020216884F868
:100730003400086820F0010008600868C00708D08D
:1007400000F0E2F9401B05286CD821680868C00752
:10075000F6D1086848F23F02CFF21002D4E9013521
:10076000024004F10C0E9EE8C1511A432A43104383
:100770003043384340EA0800626A40EA0C00042A29
:1007800040EA0E0320D1D4E90A5E206B4EEA030250
:10079000104308604869BEF1000F20F0030040EAF2
:1007A000050040F0040C15D0B8F5005F42D0B8F158
:1007B000000F51D1022D52D0012D47D055B94EE036
:1007C0000120BDE8F08100BF0B60486920F0070000
:1007D00040EA020C6FF00F004AF6AB2250FA81F0AB
:1007E000CAF6AA22A0FB02231A0944F26843C0F603
:1007F00000039A5C40F2FF335F284FF03F00C1F8DE
:1008000014C021EA030100FA02F088BF0431C4E9F0
:1008100016128860002301220020636584F83520C9
:10082000BDE8F081032220230320636584F835208E
:10083000BDE8F081032DCDD8012240230120DFE85F
:1008400005F0030E030500BFE7E700BFAEF1C0707F
:10085000B0FA80F0400904E0032D04D3BAD1CEF3FE
:1008600000600028B6D0012240230120636584F88F
:100870003520BDE8F081000070B590F834C0BCF1BF
:10088000010F46D04FF0010C80F834C0D0F858E08A
:1008900090F835C0BCF1010F38D14FF0020C80F850
:1008A00035C04FF0000CC0F854C0D0F800C08468C8
:1008B000056CC06DDCF80060402C26F48026CCF876
:1008C0000060CCF804300B4604BF13460A463F21B3
:1008D00001FA00F0CCF80830CCF80C20CEF8080073
:1008E000DCF8000040F01600CCF800002DB1DCF878
:1008F000000040F00800CCF80000DCF8000040F0F8
:100900000100CCF80000002070BD00BF002180F87D
:100910003410022070BD0000B0B5044600F0F4F8B9
:10092000054640F20400C2F200000078611C18BFC6
:10093000044400BF00F0E8F8401BA042FAD3B0BD69
:100940002DE9F04F82B000F13E4241F6004502F140
:10095000FF77C4F2020508224FEAB726A84208BF73
:100960000722072E38BF4FEAB7224FF0010A0024B2
:1009700000274FF00008009208E000BF023708F19E
:100980000108202F04F1040400F0B4800E680AFA74
:1009900008F916EA090FF1D0D1F804A00AF0030B08
:1009A000ABF10106012E17D80322866802FA07FE72
:1009B000CA6826EA0E06BA40324382604268CAF329
:1009C000001522EA090205FA08F54FEA480C6FEA19
:1009D0000E062A4342600BE00322BA40D643BBF125
:1009E000030FBC4604D1BC464FF0030B22E000BF0E
:1009F000C2688D68324005FA0CF52A43BBF1020F3C
:100A0000C26017D16FF0030202EA5802024404F0F8
:100A10001C030F25D2F820E005FA03FA0D692EEA2F
:100A20000A0E05FA03F343EA0E031362D1F804A099
:100A30000AF0030B02680BFA0CF332401A431AF463
:100A4000403F4FF0010A026098D0002243F6440371
:100A50000192C4F202031A6843F6004E42F4804247
:100A60001A601A68C4F2010E02F480420192019ADF
:100A700028F003024FF6084C7244CFF6FF7C52F880
:100A80000C3004F00C060F25B540AB43009D05FA71
:100A900006F6334342F80C30DEF808204B6842EA91
:100AA000090643F60C4CDD0258BF22EA0906CEF8CF
:100AB0000860C4F2010CDCF800209D0242EA09063D
:100AC00058BF22EA0906CCF80060DEF804209D0336
:100AD00042EA090658BF22EA0906CEF80460DEF8A9
:100AE0000020DB0342EA090658BF22EA0906CEF8D5
:100AF000006043E702B0BDE8F08F0000002A08BFA5
:100B0000090481617047000040F29460C2F2000065
:100B10000068704740F2040040F29461C2F20000A5
:100B2000C2F2000100780A681044086070470000B3
:100B300080B543F60040C4F20200016841F4007140
:100B40000160016841F480610160016841F48071D5
:100B50000160032000F084F80F2000F005F800F099
:100B600027F8002080BD000070B540F20406C2F2F4
:100B7000000640F210013278C2F200014FF47A739D
:100B80000968B3FBF2F20446B1FBF2F1084600F04B
:100B90003BFE0F2C4FF0010508D838B94FF0FF305D
:100BA00021460022002500F02FF87460284670BD11
:100BB00082B0002043F640010190C4F202014A686D
:100BC00042F480424A604A6802F480420192019AEB
:100BD0000090086840F080500860086800F080507D
:100BE0000090009802B07047002848BF704700F09E
:100BF0001F01012202FA01F14EF200124009CEF269
:100C0000000242F82010704710B54EF60C5CCEF290
:100C1000000CDCF80030C3F3022E8EF00704042C25
:100C200028BF0424BEF103034FF0FF3E0EFA04F484
:100C300038BF0023A14399400EFA03F39A431143AE
:100C400000F00F02043A624409010C3200F16043E3
:100C5000B0F1FF3FC8BF03F56442117010BD000042
:100C60004EF60C51CEF200010A684FF6FF031A400F
:100C700060F30A2242F0806040F0FD700860704727
:100C80002DE9F041002800F08B8043F60808C4F2FB
:100C900002080446D8F8F8030D4600F00700884221
:100CA00007D288F8F853D8F8F80300F00700A842F4
:100CB00076D12068810717D5410705D5D8F80010EF
:100CC00041F4E051C8F80010010705D5D8F800102C
:100CD00041F46041C8F80010D8F80010A26821F073
:100CE000F0011143C8F80010C0073FD1D8F8F8034D
:100CF00000F00700A84207D988F8F853D8F8F8039D
:100D000000F00700A8424BD12068410707D5D8F86A
:100D10000010E26821F4E0511143C8F80010000708
:100D200008D5D8F80000216920F4604040EAC100ED
:100D3000C8F8000000F07CF8D8F8001044F25042E7
:100D4000C1F30311C0F60002515C40F2100220FA18
:100D500001F140F20800C2F200000068C2F2000295
:100D60001160FFF701FF0020BDE8F0816068811E7F
:100D7000022907D258F8081C89015CBF0120BDE890
:100D8000F08111E0012807D158F8081C89035CBFE5
:100D90000120BDE8F08107E058F8081C890703D45A
:100DA0000120BDE8F08100BFD8F8001021F0030158
:100DB0000843C8F80000FFF7A7FE064641F288374F
:100DC000D8F80000616800F00C00B0EB810F8DD006
:100DD000FFF79AFE801BB842F2D90320BDE8F081EC
:100DE00040F2100043F60801C2F20000C4F2020112
:100DF0000068096844F26042C1F38221C0F6000233
:100E0000515CC8407047000040F2100043F60801F2
:100E1000C2F20000C4F202010068096844F26042B4
:100E2000C1F34231C0F60002515CC8407047000077
:100E300010B543F60404C4F20204606800F00C012B
:100E400042F200400829C0F2F40007D0042918BF7C
:100E500010BD41F20020C0F27A0010BD216801F0FF
:100E60003F02216823684902C3F3881106D4A1FB1D
:100E700000010023FFF7A4F907E000BF41F20020C2
:100E8000C0F27A004843B0FBF2F021680222C1F3BD
:100E9000014102EB4101B0FBF1F010BD2DE9F04141
:100EA00082B000286AD00446007843F60006C007E6
:100EB000C4F202060BD0B06800F00C00042840F029
:100EC000A1803068800302D56068002856D0207861
:100ED00080071AD5B06810F00C0F09D0B06800F088
:100EE0000C00082840F0A8807068400200F1A4803F
:100EF0003068800702D5E06801283FD13068216959
:100F000020F0F80040EAC10030602078000739D4B2
:100F1000207840074ED4A5695DB3B06800F00C009E
:100F2000082840F0BD80012D28D07068E16900F4E8
:100F300080028A4222D1216A00F03F028A421DD1FA
:100F400047F6C071626A0140B1EB821F16D1A26AF6
:100F50000023CFF6FF7303EBC23200F440316FF38E
:100F60000F0291420AD1E16A00F07060B0EB016FAC
:100F700004D1002002B0BDE8F08100BF012002B022
:100F8000BDE8F0816069002840F20000C4F247200B
:100F900076D00121C0F8801EFFF7B6FD054600BFE0
:100FA000706F8007B4D4FFF7AFFD401B0228F7D95C
:100FB000DDE000BF306C10F080580AD100200190B5
:100FC000306C40F080503064306C00F08050019004
:100FD000019847F20007C4F200073868C00541D401
:100FE000386840F480703860FFF78EFD054600BF1A
:100FF0003868C00536D4FFF787FD401B0228F7D9B3
:10100000B5E000BFB06800F00C00082803D170689C
:1010100040023FF556AF6068B0F5803F07D0B0F5AD
:10102000A02F40F08D80306840F480203060306820
:1010300040F4803030608DE0E068002852D000201D
:10104000C4F2472001210160FFF75EFD054600BFA5
:10105000306880073FF552AFFFF756FD401B02286E
:10106000F6D984E0A068012805D005284ED1306F5C
:1010700040F004003067306F40F0010030674FE00F
:101080000021C0F8801EFFF73FFD0546706F800706
:101090007FF53EAFFFF738FD401B0228F6D966E02A
:1010A0000027C4F2472700203866FFF72DFD022DE8
:1010B00005460BD1306880015ED5FFF725FD401B4A
:1010C00002284FF00300F5D954E700BF30688001D3
:1010D0007FF54FAFFFF718FD401B02284FF00300CC
:1010E000F4D947E70020C4F2472000210160FFF750
:1010F0000BFD0546306880077FF507AFFFF704FD5D
:10110000401B02284FF00300F4D933E7316F002869
:1011100021F001013167316F21F0040131674DD0B9
:10112000FFF7F2FC054641F2883700BF306F8007B9
:1011300056D4FFF7E9FC401BB842F7D917E000BFCF
:101140003168002821F480313160316821F4802138
:1011500031604FD0FFF7D8FC054600BF30688003F0
:101160003FF5B5AEFFF7D0FC401B6428F6D903204D
:1011700002B0BDE8F08100BF04F11C052FCD08438B
:101180000021CFF6FF7140EA821001EBC3316FF30B
:101190000F0140EA05600843706001203866FFF7E0
:1011A000B3FC0446306880013FF5E3AEFFF7ACFCCA
:1011B000001B02284FF00300F4D9DBE6FFF7A4FC84
:1011C000054641F2883700BF306F800708D5FFF72A
:1011D0009BFC401BB8424FF00300F5D9CAE600BFA4
:1011E000B8F1000F7FF497AE306C20F0805030647F
:1011F00091E600BFFFF788FC054600BF306880031A
:101200007FF565AEFFF780FC401B64284FF00300BC
:10121000F4D9AFE67047000070B538B10446406AB3
:1012200030B10020206104F1140007E0012070BDFE
:101230006068B0F5827F03D004F11C0000210160DA
:101240000026A66294F8510020B9204684F8506028
:1012500000F03CF8022084F8510094E80F0001F4FB
:101260008271056802F4044225F0400505601144CE
:1012700003F400622369114403F00202636911441C
:1012800003F00102A369E569114403F400721144FB
:1012900005F03802256A114405F08002A56A114361
:1012A00005F4005211430160626A042101EA13410E
:1012B00002F0100211444160C16921F40061C16172
:1012C0000120666584F85100304670BD2DE9F04379
:1012D00085B00446016843F20000C4F20100814277
:1012E00002D005B0BDE8F083002643F63001009639
:1012F000C4F202014A6946F2104842F480524A613F
:101300004A6900F5544002F480520092009A009617
:101310000A68C4F2020842F002020A60096801F099
:10132000020100910099382100910221CDE90116B6
:1013300003210391052104916946FFF701FB40F267
:10134000F04508F14800C2F200054FF0C0674021A7
:10135000C5E9000705F108004FF4806980E8420202
:101360002846C5E90566C5E907666E62FFF7D2F94A
:10137000002818BFFFF700F8A564AC6340F2904561
:10138000C2F200052846C5E90087C5E90266C5E93D
:101390000496C5E90666C5E90866FFF7BBF90028AB
:1013A00018BFFEF7E9FFE564AC6305B0BDE8F08364
:1013B00070470000704700002DE9F04383B00446F9
:1013C00090F85000012803D1022003B0BDE8F0835B
:1013D00001201E4615460F4684F85000FFF794FB87
:1013E00094F851108146012940F09880002F4FF069
:1013F000010018BF002D00F09E80002E00F09B80A1
:1014000094F85100002104281CBF052084F85100E5
:101410006165A563E687A6872763E6862068A686BA
:10142000216461640168490603D4016841F0400108
:1014300001606168731EE268B1FA81F1B3FA83F367
:10144000DDF8288049095B09B2F5006F41EA030124
:101450007AD131B137F8021BC1602763E08E0138C1
:10146000E086012518F1010031D101E0FFF74CFBC6
:10147000E08E18B9E08F002800F0D08020688168E5
:1014800089070CD5E18E51B1012D08D1216B0025C2
:1014900031F8022BC2602163E18E0139E186816857
:1014A000C907E3D0E18F0029E0D0C068A16B012516
:1014B00021F8020BA163E08F0138E087D6E700BF77
:1014C000FFF722FBA0EB0900404580F0FD80E08E95
:1014D00018B9E08F002800F0A18020688168890792
:1014E0000CD5E18E51B1012D08D1216B002531F8C9
:1014F000022BC2602163E18E0139E1868168C90750
:10150000DED0E18F0029DBD0C068A16B012521F876
:10151000020BA163E08F0138E087D1E76068B0F586
:10152000827F07D1A06800284FF0020008BF04297D
:1015300001D15BE70220012184F85110002184F8D9
:10154000501003B0BDE8F08339B139780173206BD6
:1015500001302063E08E0138E086012518F101009A
:1015600033D101E0FFF7D0FAE08E10B9E08F002808
:1015700054D02068816889070ED5E18E61B1012DB4
:101580000AD1216B002509780173216B2068013194
:101590002163E18E0139E1868168C907E2D0E18FDC
:1015A0000029DFD0C068A16B01250870A06B013055
:1015B000A063E08F0138E087D4E700BFFFF7A4FA0B
:1015C000A0EB0900404580F08180E08E08B9E08FF3
:1015D00020B32068816889070ED5E18E61B1012DA5
:1015E0000AD1216B002509780173216B2068013134
:1015F0002163E18E0139E1868168C907DED0E18F80
:101600000029DBD0C068A16B01250870A06B0130F8
:10161000A063E08F0138E087D0E700BF40F2100000
:10162000C2F20000006849F68171C1F25E61A0FB60
:101630000101480D4FF47A71484302906068B0F59B
:10164000827F0FD12046802142464B4601F076FA38
:1016500060B3606D40F0200060652020606501206F
:1016600069E700BF029808B3029801380290206829
:10167000806800061AD50298C0B10298013802901D
:1016800020688068000611D5029878B10298013868
:10169000029020688068000608D5029830B1029850
:1016A00001380290206880680006DBD4A06800281A
:1016B0004FF000007FF43FAF01902168CA680192AB
:1016C00089680191019936E7032034E7032032E766
:1016D00070B5044690F85000012804BF022070BD88
:1016E000012084F8500094F85150012D0AD10029AE
:1016F0004FF0010018BF002A10D1002184F85010CB
:1017000070BD00BF6068B0F5827F5DD1A068002821
:101710004FF0020008BF042DEFD1E8E7002BECD01A
:1017200094F85100002604281CBF052084F85100BD
:1017300066652163A386E386A263A387E387C4E982
:10174000106694F8511042F69D1C42F6A513C0F69F
:10175000000CC0F60003042942F659212568E06C0C
:1017600008BF634642F6AD1CC0F60001C0F6000C8F
:1017700008BF6146C0E90F1342F67D11C0F60001B3
:10178000C0E91316E38F05F10C01FFF775F878B97E
:101790002268216BA06C536843F001035360C0E9D9
:1017A0000F66C0E91366E38E0C32FFF765F888B167
:1017B000606D40F010006065012084F85100002148
:1017C00084F8501070BD00BF0220002184F8501032
:1017D00070BD00BF20680168490603D4016841F06C
:1017E00040010160416841F020014160416841F0E1
:1017F000020141600020002184F8501070BD0000FB
:101800007047000070470000411E0020B0EB116FD0
:101810001CBF012070474EF21002CEF20002516050
:101820004EF62351CEF20001F0230B700721906099
:1018300011607047704700007047000010B590F8C5
:101840003C20012A4FF0020251D080F83D2002686E
:10185000D2F804E0D2F808C00C682EF070032343DD
:1018600041F2FF74C4F20004A24253600EDC40F265
:10187000FF73C4F200039A4216DCB2F1804F2BD002
:1018800040F20043C4F2000324E000BF40F2FF3303
:10189000C4F201039A4213DC41F60003C4F20003D0
:1018A0009A4219D0002313E040F60003C4F200036B
:1018B0009A4211D040F60043C4F200030AE000BF90
:1018C00044F20003C4F201039A4205D040F20043FF
:1018D000C4F201039A4204D149682CF080031943F1
:1018E00091600121002280F83D1080F83C201046D4
:1018F00010BD0000002804BF0120704710B5044649
:1019000090F83D0028B9002084F83C00204600F003
:101910001FF8022084F83D002068211D01F058FACC
:10192000012084F8460084F83E0084F83F0084F8E3
:10193000400084F8410084F8420084F8430084F8B1
:10194000440084F8450084F83D00002010BD0000EC
:1019500080B582B000680021C4F2010188421CBF3A
:1019600002B080BD0020019043F64400C4F20200A2
:101970000168002241F0010101600068002100F0CF
:101980000100019001981920FFF73EF9192002B0DB
:10199000BDE88040FFF728B990F83D1001291CBF31
:1019A00001207047022180F83D10006841F2FF726B
:1019B000C168C4F20002904241F00101C1600DDC37
:1019C00040F2FF71C4F20001884215DCB0F1804F93
:1019D0002AD040F20041C4F2000123E040F2FF317E
:1019E000C4F20101884213DC41F60001C4F2000197
:1019F000884219D0002113E040F60001C4F2000132
:101A0000884211D040F60041C4F200010AE000BF54
:101A100044F20001C4F20101884205D040F20041C5
:101A2000C4F20101884206D1816801F0070106294C
:101A300004BF00207047016841F0010101600020EF
:101A40007047000080B590F83C20012A4FF0020258
:101A500000F0C28080F83D20D0F800C04FF67772C9
:101A6000DCF8083023EA0202CCF808200B684F2B80
:101A700028DC1F2B44DD202B45D0302B43D0402BBE
:101A800040F0AC80D1F804E0C968DCF82030DCF824
:101A9000202022F00102CCF82020DCF8182022F0CF
:101AA000F00242EA011123F00A0242EA0E02CCF8E7
:101AB0001810CCF82020DCF8081041F0470121F084
:101AC000300180E06F2B27DDB3F5005F48D0B3F520
:101AD000805F7AD0702B40F08180D1E901E3C96842
:101AE000DCF8082043EA0E0322F47F4243EA012196
:101AF0001143CCF80810DCF8081041F0770162E0DF
:101B00000BB1102B6AD1DCF8081021F070011943D9
:101B100041F0070157E000BF502B35D0602B5DD15D
:101B2000D1F804E0C968DCF8203023F01003CCF8C9
:101B30002030DCF81830DCF8202023F4704322F049
:101B4000A00243EA013142EA0E12CCF81810CCF898
:101B50002020DCF8081041F0670121F0100132E08C
:101B6000D1E901E3C968DCF8082043EA0E0322F456
:101B70007F4243EA01211143CCF80810DCF8081039
:101B800041F480411FE000BFD1F804E0C968DCF8EF
:101B90002030DCF8202022F00102CCF82020DCF8F4
:101BA000182022F0F00242EA011123F00A0242EA70
:101BB0000E02CCF81810CCF82020DCF8081041F008
:101BC000570121F02001CCF808100022012180F8F3
:101BD0003D10002180F83C10104680BD0122F5E741
:101BE0007047000010B5016804460869800744BFCB
:101BF000C8685FEA807039D40869400744BFC86884
:101C00005FEA40703ED40869000744BFC8685FEAD5
:101C1000007045D40869C00644BFC8685FEAC06068
:101C20004AD40869C0071CBFC8685FEAC07051D1B8
:101C30000869000644BFC8685FEA006052D40869BA
:101C4000400644BFC8685FEA406053D40869800614
:101C500046BFC8685FEA806010BD6FF02002204672
:101C60000A61BDE81040FFF7E7BD00BF6FF002005A
:101C70000861012020778869800743D02046FFF75C
:101C8000AFFF45E06FF0040008610220207788690B
:101C900010F4407F40D02046FFF7A2FF42E000BF93
:101CA0006FF00800086104202077C86980073DD0E4
:101CB0002046FFF795FF3FE06FF010000861082015
:101CC0002077C86910F4407F3AD02046FFF788FF9C
:101CD0003CE000BF6FF001000861204600F03EF8D4
:101CE0002168A5E76FF0800008612046FFF7A2FD9C
:101CF0002168A4E76FF040000861204600F04CF82E
:101D00002168A3E7204600F025F8204600F024F8DB
:101D10002168002020776FE7204600F01BF820465E
:101D200000F01AF82168002020776CE7204600F0C8
:101D300011F8204600F010F821680020207769E7AC
:101D4000204600F007F8204600F006F82168002041
:101D5000207766E7704700007047000040F2086196
:101D6000C2F20001884218BF704710B540F24C140F
:101D7000C2F2000422780020C4F202000221002AEC
:101D800018BF0122FEF7BAFE2078B0FA80F04009B1
:101D90002070BDE810407047704700007047000099
:101DA00070470000B0B582B0044600680168C3689F
:101DB000426901F02F05202D03F0200506D12DB139
:101DC000204602B0BDE8B04001F0CABA5FEA017C2B
:101DD0001EBF02F0010E03F4907212EB0E0255D1F9
:101DE000226B012A05D111F0100218BF13F0100266
:101DF00036D10A0622D513F080021FD094F83D1088
:101E0000212941D1A168B1F5805F03D12169002961
:101E100000F06C82216A4A1C226209784160E18CE0
:101E200001390A04E1842FD1C16821F08001C16029
:101E3000C16841F04001C16002B0B0BD490623D580
:101E400013F0400120D0C16821F04001C160202181
:101E5000204684F83D1002B0BDE8B04000F07EBCE2
:101E60000021019101680191416801910199416945
:101E7000490600F18B80A18DE28DE38D002B1CBF04
:101E8000891A5FEA01420CD102B0B0BDCA0718BF7F
:101E900013F4807240F032814A0700F135813AE153
:101EA000206850E8030F226820F4907042E8030392
:101EB000DBB1206850E8030F226820F4907042E8FC
:101EC000030393B1206850E8030F226820F4907058
:101ED00042E803034BB1206850E8030F226820F466
:101EE000907042E80303002BDAD1206850E8050F18
:101EF000226820F0010042E80503DBB1206850E8C9
:101F0000050F226820F0010042E8050393B1206824
:101F100050E8050F226820F0010042E805034BB1AC
:101F2000206850E8050F226820F0010042E8050310
:101F3000002BDAD1202084F83E00002020632068A6
:101F400050E8030F226820F0100042E80303DBB1E1
:101F5000206850E8030F226820F0100042E80303D5
:101F600093B1206850E8030F226820F0100042E887
:101F700003034BB1206850E8030F226820F01000E3
:101F800042E80303002BDAD189B2B0E0A26B1168FA
:101F90004B689DB2002D3FF477AFA18D8D42BFF409
:101FA00073AFE385D269B2F5807F00F09D8050E881
:101FB000030F216820F4807041E80302E2B1206839
:101FC00050E8030F216820F4807041E803029AB1C1
:101FD000206850E8030F216820F4807041E8030274
:101FE00052B1206850E8030F216820F4807041E866
:101FF00003020AB12068DAE7206850E8050F21687B
:1020000020F0010041E80502DAB1206850E8050F30
:10201000216820F0010041E8050292B1206850E8F3
:10202000050F216820F0010041E805024AB120684F
:1020300050E8050F216820F0010041E80502002A60
:10204000DAD1206850E8050F216820F0400041E80F
:102050000502DAB1206850E8050F216820F0400041
:1020600041E8050292B1206850E8050F216820F090
:10207000400041E805024AB1206850E8050F216898
:1020800020F0400041E80502002ADAD1202084F83F
:102090003E0000202063206850E8030F216820F0F4
:1020A000100041E80302DAB1206850E8030F21680C
:1020B00020F0100041E8030292B1206850E8030FBD
:1020C000216820F0100041E803024AB1206850E87E
:1020D000030F216820F0100041E80302002ADAD142
:1020E000A06BFEF7DBF9A18DE08D081A81B22046C6
:1020F00002B0BDE8B040FFF751BE00BF226C42F015
:10210000010222644A0706D5BEF1000F03D0226CFB
:1021100042F0020222648A0706D5BEF1000F03D006
:10212000226C42F004022264BCF1000F06D555EA8D
:102130000E0203D0226C42F008022264226C002AB4
:102140003FF4A2AE11F0200118BF002D03D02046AD
:1021500001F006F920684169226C01F0400102F0AB
:102160000802891800F0A28050E8030F216820F4CB
:10217000907041E80302C2B3206850E8030F216861
:1021800020F4907041E803027AB3206850E8030F0E
:10219000216820F4907041E8030232B3206850E8CF
:1021A000030F216820F4907041E80302EAB120682F
:1021B000DAE700BF206850E8050F216820F0010031
:1021C00041E80502DAB1206850E8050F216820F0E7
:1021D000010041E8050292B1206850E8050F21682E
:1021E00020F0010041E805024AB1206850E8050FDF
:1021F000216820F0010041E80502002ADAD1206BB5
:10220000012824D1206850E8030F216820F0100035
:1022100041E80302DAB1206850E8030F216820F09A
:10222000100041E8030292B1206850E8030F2168D2
:1022300020F0100041E803024AB1206850E8030F83
:10224000216820F0100041E80302002ADAD12020A2
:1022500084F83E00002020632068416949063FD58C
:1022600050E8050F216820F0400041E805022AB33C
:10227000206850E8050F216820F0400041E8050281
:10228000E2B1206850E8050F216820F0400041E8E5
:1022900005029AB1206850E8050F216820F040003F
:1022A00041E8050252B12068DAE700BF2046FFF797
:1022B00077FD0020206402B0B0BD00BFA06B78B1F4
:1022C00043F25531C0F600010165FEF731F90028EF
:1022D0003FF4DAADA06B016D02B0BDE8B040084735
:1022E000204602B0BDE8B040FFF75ABD216A31F880
:1022F000022B6FF35F224260216290E5002804BF49
:102300000120704710B5044690F83D0028B9002020
:1023100084F83C00204600F021F8242084F83D0099
:102320002068C16821F40051C160204601F098F88E
:102330002068016921F490410161416921F02A017D
:102340004161C16841F40051C16000202021206436
:1023500084F83D1084F83E1010BD000070B586B0C2
:102360000446016841F20000C4F20100814201D03C
:1023700006B070BD002643F630010196C4F202019A
:102380004A6900F5704042F010024A614A6902F061
:1023900010020192019A01960A6842F001020A6055
:1023A000096801F00101019101994FF4C0610191A7
:1023B0000221CDE90216032104910721059101A90B
:1023C000FEF7BEFA40F2505546F2B840C2F20005A0
:1023D000C4F202004FF0006140224FF4806385E8B0
:1023E00047002846C5E90436C5E90666C5E908661A
:1023F000FEF790F9002818BFFDF7BEFF2520002149
:1024000000226563AC63FEF7FFFB2520FEF7ECFBC3
:1024100006B070BD90F83E30202B0BD100294FF054
:10242000010318BF002A01D11846704790F83C30CC
:10243000012B01D102207047002303638162222116
:102440008285C285036480F83E100269016880F8C5
:102450003C301AB1C86840F48070C86048690023F5
:1024600040F001004861C86840F02000C86018468C
:102470007047000010B5006841F20001C4F201018C
:10248000884218BF10BD40F29004C2F200042046FA
:1024900001F076F8A07F0B2808D0EE2812D10E208C
:1024A000E083002084F820000EE000BF04F1210149
:1024B000204600F0A7FE0E20E083002084F82000D4
:1024C00002E000BF94F82000211840F25060C2F2F0
:1024D00000000122BDE81040FFF79CBF2DE9F0434A
:1024E00081B0044690F83D0020280DD10F46002908
:1024F0004FF0010000F0DD801646002A00F0D98080
:1025000094F83C00012803D1022001B0BDE8F0831B
:10251000012084F83C004FF0000921201D46C4F83A
:10252000409084F83D00FEF7EFFAA684E684A168A7
:102530000646B1F5805F07D1206900281CBF3846E8
:102540004F46B846074601E04FF0000884F83C903B
:10255000E18C2068002900F08B8005F101090AE078
:1025600047B317F8011B4160E18C0139E184E18C2C
:10257000002900F07D8001680906F1D4B9F1000F4F
:102580000AD0EDB1FEF7C0FA801BA84218D8206827
:1025900001680906F6D5E3E701680906E0D4016899
:1025A00009065CBF01685FEA0161D9D401680906C8
:1025B000F2D5D5E738F8021B00276FF35F21D2E789
:1025C000206850E8030F216820F4D07041E803022E
:1025D000BAB3206850E8030F216820F4D07041E8B6
:1025E000030272B3206850E8030F216820F4D07012
:1025F00041E803022AB3206850E8030F216820F461
:10260000D07041E80302002ADAD11AE0206850E8CD
:10261000050F216820F0010041E80502DAB12068C9
:1026200050E8050F216820F0010041E8050292B151
:10263000206850E8050F216820F0010041E80502FC
:102640004AB1206850E8050F216820F0010041E8F8
:102650000502002ADAD1202084F83D0084F83E00EB
:10266000002084F83C00032001B0BDE8F08300BFE7
:102670000168490619D4FDB1691C0DD101684906EC
:1026800013D4016849065CBF01685FEA41610CD45C
:1026900001684906F2D508E0FEF736FA801BA84229
:1026A0000AD8206800684006F6D5202084F83D004E
:1026B000002001B0BDE8F083206850E8030F2168D6
:1026C00020F4D07041E80302E2B3206850E8030F21
:1026D000216820F4D07041E803029AB3206850E8E2
:1026E000030F216820F4D07041E8030252B3206840
:1026F00050E8030F216820F4D07041E80302002A5B
:10270000DAD11FE0206850E8050F216820F00100B1
:1027100041E80502002A9ED0206850E8050F216894
:1027200020F0010041E80502002A3FF494AF206840
:1027300050E8050F216820F0010041E80502002A59
:102740003FF489AF206850E8050F216820F00100B0
:1027500041E80502002AD5D17DE70000704700005E
:10276000FEE7000080B582B00020019043F6300003
:10277000C4F202000168002241F480010160006897
:10278000002100F48000019001983820FEF73CFA07
:102790003820FEF729FA3B2000210022FEF734FA08
:1027A0003B20FEF721FA462000210022FEF72CFAFA
:1027B000462002B0BDE88040FEF716BA2DE9F0438E
:1027C00087B0002743F6300006970197C4F2020055
:1027D0000168002441F0800101600168C4F2020434
:1027E00001F080010191019901970168002241F0F7
:1027F0000101016001684FF4004601F001010191FF
:1028000001990197016841F008010160016801F038
:102810000801019101990197016841F002010160ED
:1028200000684FF4004100F002000190019820463A
:10283000FEF764F904F540652846042100224FF0B4
:102840000408FEF75BF9029602AE4FF0010920463C
:102850003146CDE903970597FEF772F828463146D1
:10286000CDE90289CDE90477FEF76AF807B0BDE843
:10287000F083000080B540F2B05043F20001C2F294
:102880000000C4F201014FF4827200234FF4007C77
:1028900080E80E000A21C0E90333C0E9053CC361AA
:1028A000C0E90833C0E90A31FEF7B6FC002808BFCA
:1028B00080BDBDE88040FDF75FBD000080B586B0FB
:1028C00040F2086000220021C2F20000C4F20102BE
:1028D0004AF20F4340F2CF7C0591CDE90311CDE9D7
:1028E0000011C0E90023C0E9021CC0E904118161A4
:1028F000FFF700F8002818BFFDF73EFD4FF48050A9
:10290000029040F20860C2F2000002A9FFF79AF8B4
:10291000002818BFFDF730FD40F20860C2F2000049
:102920006946FEF78BFF002818BFFDF725FD06B0AE
:1029300080BD000080B540F2506041F20001C2F25B
:102940000000C4F2010100234FF00C0C4FF4E132FF
:1029500080E80E00C0E90333C0E905C3C361FFF797
:10296000CDFC002808BF80BDBDE88040FDF704BD58
:10297000FEE70000FEE7000070470000806B016882
:102980004A6822F003024A60416D41F0100141653E
:10299000012180F85110FEF73DBC0000806BFEF76E
:1029A00009BD0000806BFEF72DBF0000B0B5846B41
:1029B0000546FEF7A9F829680968C9053ED403460B
:1029C0002068A168426822F02002426041B9626832
:1029D000B2F5827F04D1416821F00301416033E008
:1029E000426822F0010242606268B2F5827F0CD137
:1029F000B1F5004F02D0B1F5806F25D10268B1F575
:102A0000806F22F0400202601ED120460121642224
:102A100000F094F828B1606D40F02000606520203F
:102A200060650020E087012084F85100606D28B1C6
:102A30002046BDE8B040FEF7EDBB00BF2046BDE834
:102A4000B040FEF7B5BC00BF20468021642200F0F4
:102A500075F80028DFD1E4E7B0B582B0846B054695
:102A6000FEF752F829680968C90561D40346206851
:102A700049F681724168C1F25E6221F02001416035
:102A800040F21001C2F200010968A1FB0212510DCF
:102A90004FF47A72514301916168B1F5827F21D17F
:102AA00020468021642200F049F838B1606D40F082
:102AB00020006065606D40F020006065206841681E
:102AC00021F0030141600020E086E087012084F8C6
:102AD0005100606D60B3204602B0BDE8B040FEF723
:102AE00099BB00BF01990029E8D0019901390191F2
:102AF00081680906E2D501990029DFD001990139E1
:102B0000019181680906D9D501990029D6D001998A
:102B10000139019181680906D0D501990029CDD0EC
:102B200001990139019181680906DBD4C6E700BF2C
:102B3000204602B0BDE8B040FEF762BE2DE9F0418C
:102B400082B01E4690460D460446FDF7DDFF301A62
:102B500000EB0807FDF7D8FF40F21001C2F20001B8
:102B60000968C1F3CB317943019121688A682A4011
:102B7000AA4227D1064618F101001FD0FDF7C4FF75
:102B8000801BB84222D2019801990028A1F10101CD
:102B900001912168896808BF074601EA0500A8423B
:102BA000ECD00FE088682840A8420BD18868284004
:102BB000A84207D188682840A84203D188682840E5
:102BC000A842EFD0002002B0BDE8F081D4E90001B6
:102BD0004268B1F5827F22F0E00242600AD1A1682A
:102BE000B1F5004F02D0B1F5806F03D1016821F03B
:102BF00040010160A16AB1F5005F07D1016821F4CD
:102C000000510160016841F400510160012084F825
:102C10005100002084F85000032002B0BDE8F0818C
:102C2000704700002DE9F04F83B0DDE90C961746A0
:102C30000C460025314600229846C4F2020500F0F9
:102C400065F9204631460122012400F05FF938463B
:102C50003146022200F05AF940463146032200F084
:102C600055F948463146042200F050F986F8FF40F5
:102C700040F2B0564FF47A78C2F200060DF1080A1D
:102C80004FF0FF0B0DF10B070DF10A0428464FF42E
:102C900000410022FDF732FF05208DF80900304683
:102CA0000DF1090152460123CDF80080FEF784FBA7
:102CB00030463946224601238DF80BB0CDF800800E
:102CC000FEF77AFB9DF80A9028464FF40041012256
:102CD000FDF714FF5FEAC970D8D140F25014C2F278
:102CE000000420680D9901F0BDF92068B0FA80F069
:102CF00040090002206003B0BDE8F08FFDF70ABF75
:102D0000B0B592B0002443F640000B94CDE90944DD
:102D1000CDE907440594CDE90344CDE9014400948D
:102D2000C4F202000168022541F080510160006890
:102D300000F080500090009847F200000094C4F228
:102D40000000016841F480410160006800F48040A7
:102D5000009000980120099010200A9008200E9001
:102D6000A820CDE90F050420119006A80695CDE90D
:102D70000C54FEF793F828B1EFF3108072B600BF41
:102D8000FEE700BF0F20CDE901054FF4A0500490ED
:102D90004FF48050059001A805210394FDF770FFC2
:102DA00020B1EFF3108072B6FEE700BF12B0B0BDE5
:102DB0004EF68850CEF20000016841F470010160C7
:102DC0007047000040F20860C2F20000FEF70ABF40
:102DD00010B540F6FF3E0368C4F2000E40F2004C0E
:102DE0007045C4F2010C27DCB0F1804F31D040F2C5
:102DF0000042C4F2000290422BD040F60002C4F21E
:102E00000002904225D041F6FF72C4F200029042C7
:102E100029DC70453CDCB0F1804F5FD040F20042CD
:102E2000C4F20002904259D040F60002C4F20002FF
:102E3000904253D056E000BF40F60042C4F2000278
:102E4000904206D0604504D00022C4F201029042B4
:102E5000D9D14A6823F07003134341F6FF72C4F2DC
:102E600000029042D5DD43F6FF72C4F201029042A7
:102E700022DC42F20002C4F2000290422ED0002274
:102E8000C4F20102904229D0604527D02AE000BF59
:102E900040F60042C4F2000290421FD041F6000208
:102EA000C4F20002904219D041F60042C4F200027E
:102EB000904213D016E000BF44F20002C4F20102B7
:102EC00090420BD044F60002C4F20102904205D0B9
:102ED00044F20042C4F20102904203D1CA6823F4D2
:102EE0004073134323F080024B69D1F800E08C68F3
:102EF0001A430260C46240F48062C0F828E0624570
:102F000004BF096901630121416110BD80B58C4690
:102F100003782F2112FB01C25370417848F28103DC
:102F200091708178C8F28003D170816811718168D5
:102F3000090A51718168090C91718168090ED1717A
:102F4000C1781172D0F80CE0AEFB03310EEBD11159
:102F50005172D0F80CE048F20103C8F20003AEFB56
:102F600003310EEBD131090A9172C16848F2810335
:102F7000090CD172C168090E11730169517301699D
:102F8000090A91730169090CD1730169090E117461
:102F9000416951744169090A91744169090CD174FC
:102FA0004169090E1175816951758169090A917527
:102FB0008169090CD1758169090E1176016A517612
:102FC000016A090A9176016A090CD176016A090E33
:102FD0001177416A5177416A090A9177416A090C70
:102FE000D177416A090E82F82010816A82F8211097
:102FF000816A090A82F82210816A090C82F823107A
:10300000816A090E82F82410C18882F82510C188CF
:103010005943C90D82F82610C16A82F82710C16A87
:10302000090A82F82810C16A090C82F82910C16ABD
:10303000090E82F82A10016B82F82B10016B090A25
:1030400082F82C10016B090C82F82D10016B090E0F
:1030500082F82E100179604682F82F1080BD0000A2
:103060002F2312FB03138C4659780246017098787F
:103070005070D8789070187990605879916801EB09
:10308000002090609879916801EB00409060D879B9
:10309000916801EB00609060187AD070587AD06027
:1030A000987AD16801EB0020D060D87AD16801EB22
:1030B0000040D060187BD16801EB0060D060587B85
:1030C0001061987B116901EB00201061D87B1169B8
:1030D00001EB00401061187C116901EB0060106188
:1030E000587C5061987C516901EB00205061D87C7C
:1030F000516901EB00405061187D516901EB00609E
:103100005061587D9061987D916901EB002090613C
:10311000D87D916901EB00409061187E916901EBC7
:1031200000609061587E1062987E116A01EB002069
:103130001062D87E116A01EB00401062187F116A9C
:1031400001EB00601062587F5062987F516A01EB7A
:1031500000205062D87F516A01EB0040506293F822
:103160002000516A01EB0060506293F821009062E8
:1031700093F82200916A01EB0020906293F82300FB
:10318000916A01EB0040906293F82400916A01EB90
:103190000060906293F82500D08093F82600D188D3
:1031A00001EB0020D08093F82700D06293F828002C
:1031B000D16A01EB0020D06293F82900D16A01EBBB
:1031C0000040D06293F82A00D16A01EB0060D0621F
:1031D00093F82B00106393F82C00116B01EB002087
:1031E000106393F82D00116B01EB0040106393F80E
:1031F0002E00116B01EB0060106393F82F106046F6
:10320000117170470278F02A04D1F0228A70407858
:10321000C8707047837FF12B4AD142788A718278D7
:103220008A73C2788A7502798A77427981F8262072
:10323000827981F82E20C27981F83620027A4A7389
:10324000427A4A75827A4A77C27A81F82520027BCF
:1032500081F82D20427B81F83520827B81F83D204A
:10326000C27B0A75027C0A77427C81F82420827C2A
:1032700081F82C20C27C81F83420027D81F83C202A
:10328000427D81F84420827DCA76C27D81F8232068
:10329000027E81F82B20427E81F83320827E81F8E5
:1032A0003B20C27E81F84320007F81F84B007047AD
:1032B000E03A1E2A88BF7047DFE802F01016242487
:1032C00024242424242424242424242424241E24C4
:1032D000262A2E243424383C40444800E0228A70B8
:1032E0008078C870704700BFE1228A704278CA7047
:1032F00080780871704700BFF2228A704278CA70E5
:1033000080780871704700BFF4208870704700BF54
:10331000F5208870704700BFF6228A704078C87028
:10332000704700BFF8208870704700BFFA2088708F
:10333000704700BFFB208870704700BFFC2088707A
:10334000704700BFFD208870704700BFFE20887066
:1033500070470000806B0021C185C184FEF720BD4D
:1033600081B090F83E10222920D18368B3F5805FA8
:1033700008D10169002965D000F128010A680368B5
:103380005B680AE0014651F8282F13B90369002B46
:10339000F5D003685B6803F07F0313700A6801329D
:1033A0000A60C18D01390A04C18501D001B070479E
:1033B0000168CA6822F02002CA60CA6822F48072DA
:1033C000CA604A6922F001024A61202280F83E2048
:1033D000026B012A40D10022026300BF51E8031FA3
:1033E000026821F0100142E803130168DBB151E8E3
:1033F000031F026821F0100142E80313016893B132
:1034000051E8031F026821F0100142E8031301682C
:103410004BB151E8031F026821F0100142E8031389
:103420000168002BDAD10A68D20606D50022009284
:103430000A680092496800910099818D01B0FEF7F9
:10344000ADBC00BF0168826A49686FF35F2122F852
:10345000021B8262A5E700BF01B0FFF70BB80000B6
:1034600010B504460068D4E902C22369016921F459
:10347000405111430161626943EA0C01E369114360
:10348000C268194349F20C639A431143C160416910
:10349000A26921F4407141F20043114340F480627B
:1034A000C4F201039A42416102D1FDF7ADFC01E093
:1034B000FDF796FCE16963681922B1F5004FA0FBA6
:1034C00002011FD15A00DB0FFCF77AFE48F21F51B0
:1034D000C5F2EB11A0FB01235A096FF0630302FB55
:1034E0000300322303EBC000A0FB01014FF4F8708E
:1034F00000EA111000EB0210C1F3421108442168E8
:10350000886010BD9A009B0FFCF75AFE48F21F51CD
:10351000C5F2EB11A0FB01235A096FF0630302FB14
:103520000300322303EB0010A0FB0101F02000EAAE
:10353000511000EB0210C1F3431108442168886068
:1035400010BD000040F25060C2F20000FEF72ABC3D
:1035500010B540F29004C2F2000420462121FCF78D
:1035600067FE0E2340F25060C2F2000021460122A5
:10357000A377BDE81040FEF74DBF0000FEE7000056
:10358000817F0E2916D00A2918BF704790F82010A5
:10359000C1B1C27F91429EBF013180F820107047B7
:1035A00001328A420CD1415CFF290CBF0B21EE2174
:1035B0008177704790F82010415CA9B1EE218177A6
:1035C000704700BF01782031C9B21E2908D80322F4
:1035D000C7F67752CA40D20702D005A2515CC17724
:1035E000012180F8201070470A218177704700BFC1
:1035F00002030101010101010101010101010101B8
:10360000011C020100000101000100000000000097
:103610002DE9F04F85B00024C4F2020420464FF497
:1036200000410022FDF76AFA40F2B0550620C2F2CE
:1036300000058DF809004FF47A760DF1090102AA10
:10364000284601230096FDF7B7FE20464FF40041BF
:103650000122FDF753FA0DF10A094FF0FF0B0DF1AE
:103660000D0A03AF20464FF400410022FDF746FA51
:1036700005208DF80B0028460DF10B014A46012369
:103680000096FDF799FE284651463A4601238DF8EB
:103690000DB00096FDF790FE9DF80C8020464FF48B
:1036A00000410122FDF72AFA5FEAC870DAD120460C
:1036B0004FF400410022FDF721FA40F2B055C72037
:1036C000C2F200058DF80F004FF47A760DF10F016C
:1036D0000DF10E02284601230096FDF76DFE2046EF
:1036E0004FF400410122FDF709FA0DF110094FF0E6
:1036F000FF0B0DF1130A0DF1120700BF20464FF426
:1037000000410022FDF7FAF905208DF81100284646
:103710000DF111014A4601230096FDF74DFE2846A2
:1037200051463A4601238DF813B00096FDF744FE4A
:103730009DF8128020464FF400410122FDF7DEF98A
:103740005FEAC870DAD105B0BDE8F08F2DE9F04F1F
:1037500083B040F2000AC4F2020A019050464FF4CE
:1037600000410022FDF7CAF940F2B0550620C2F22E
:1037700000050DF10B060DF10A078DF80B004FF453
:103780007A74284631463A4601230094FDF714FE28
:1037900050464FF400410122FDF7B0F94FF0050902
:1037A0004FF0FF0B50464FF400410022FDF7A6F901
:1037B000284631463A4601238DF80B900094FDF7D8
:1037C000FBFD284631463A4601238DF80BB00094A4
:1037D000FDF7F2FD9DF80A8050464FF400410122AA
:1037E000FDF78CF95FEAC870DCD150464FF4004118
:1037F00000224FF00008FDF781F940F2B05620207A
:10380000C2F200060DF10B090DF10A058DF80B004F
:103810004FF47A77304649462A4601230097FDF750
:10382000CBFD019C0DF10B0120098DF80B000DF172
:103830000A02304601230097FDF7BEFD20018DF8F6
:103840000B000DF10B010DF10A0230460123009728
:10385000FDF7B2FD0DF10B010DF10A023046012317
:103860008DF80B800097FDF7A7FD50464FF40041FF
:103870000122FDF743F94FF005084FF0FF0B00BFA1
:1038800050464FF400410022FDF738F930464946D2
:103890002A4601238DF80B800097FDF78DFD3046F9
:1038A00049462A4601238DF80BB00097FDF784FDA9
:1038B0009DF80A4050464FF400410122FDF71EF9E1
:1038C000E007DDD103B0BDE8F08F00002DE9F04F37
:1038D00085B040F20008C4F2020815460C460646C0
:1038E00040464FF4004100224FF0000AFDF706F970
:1038F00040F2B0570320C2F200078DF80B004FF4DE
:103900007A790DF10B010DF10A0238460123CDF849
:103910000090FDF751FD200E8DF80D000DF10D0109
:1039200003AA38460123CDF80090FDF745FD200C91
:103930008DF80F000DF10F010DF10E023846012335
:10394000CDF80090FDF738FD0DF1110104AA3846BD
:1039500001238DF811A0CDF80090FDF72DFDDDB10C
:1039600040F2B05A741E4FF0FF0BC2F2000A0DF184
:1039700013060DF1120700BF504631463A460123A7
:103980008DF813B0CDF80090FDF716FD9DF81200EC
:10399000013D04F8010FEFD140464FF400410122F0
:1039A000FDF7ACF805B0BDE8F08F000080B582B03F
:1039B000019040F25060C2F2000001A901220A23E6
:1039C000FEF78CFD019802B080BD000082B0FDF7CB
:1039D000AFF8FFF795F9FEF7F1FEFEF7ABFFFEF744
:1039E000C1FEFEF747FFFEF769FF40F20860C2F232
:1039F0000000FDF7D1FF40F21804C2F200040A20D3
:103A00000121206261610221A161032161706421B1
:103A1000E16020711E20E061162020616FF0090036
:103A2000A061F2202071EF206062AF20A062FA2036
:103A3000E08033202070FFF78BFDFFF7E9FD40F2B7
:103A4000542AC2F2000A2046214622462346009408
:103A5000CDF804A0FFF7E6F84FF47A70FCF75CFFAE
:103A600040F2544040F2D40240F25438C2F2000016
:103A7000C2F20002C2F20008009004F13C0102F11F
:103A80003C032046CDF80480FCF77CFC44F27049EE
:103A9000C0F60009484600F0C9FC44F2754544F2FE
:103AA00072460024C0F60005C0F600061AF804109D
:103AB00028460AEB040700F039FB304600F036FBDD
:103AC0007978284600F032FB304600F02FFBB978B9
:103AD000284600F02BFB304600F028FBF9782846FA
:103AE00000F024FB304600F021FB3979284600F035
:103AF0001DFB304600F01AFB7979284600F016FBD2
:103B0000304600F013FBB979284600F00FFB304631
:103B100000F00CFBF979284600F008FB304600F075
:103B200005FB397A284600F001FB304600F0FEFA2A
:103B3000797A284600F0FAFA304600F0F7FAB97AB6
:103B4000284600F0F3FA304600F0F0FAF97A2846F9
:103B500000F0ECFA304600F0E9FA397B284600F034
:103B6000E5FA304600F0E2FA797B284600F0DEFA0A
:103B7000304600F0DBFAB97B284600F0D7FA304631
:103B800000F0D4FAF97B284600F0D0FA304600F075
:103B9000CDFA397C284600F0C9FA304600F0C6FA62
:103BA000797C284600F0C2FA304600F0BFFAB97CB2
:103BB000284600F0BBFA304600F0B8FAF97C2846F7
:103BC00000F0B4FA304600F0B1FA397D284600F032
:103BD000ADFA304600F0AAFA797D284600F0A6FA40
:103BE000304600F0A3FAB97D284600F09FFA30462F
:103BF00000F09CFAF97D284600F098FA304600F073
:103C000095FA397E284600F091FA304600F08EFA97
:103C1000797E284600F08AFA304600F087FAB97EAD
:103C2000284600F083FA304600F080FAF97E2846F4
:103C300000F07CFA304600F079FA397F284600F02F
:103C400075FA304600F072FA797F284600F06EFA75
:103C5000304600F06BFAB97F284600F067FA30462C
:103C600000F064FAF97F284600F060FA304600F070
:103C70005DFA97F82010284600F058FA304600F018
:103C800055FA97F82110284600F050FA304600F017
:103C90004DFA97F82210284600F048FA304600F016
:103CA00045FA97F82310284600F040FA304600F015
:103CB0003DFA97F82410284600F038FA304600F014
:103CC00035FA97F82510284600F030FA304600F013
:103CD0002DFA97F82610284600F028FA304600F012
:103CE00025FA97F82710284600F020FA304600F011
:103CF0001DFA97F82810284600F018FA304600F010
:103D000015FA97F82910284600F010FA304600F00E
:103D10000DFA97F82A10284600F008FA304600F00D
:103D200005FA97F82B10284600F000FA304600F00C
:103D3000FDF997F82C10284600F0F8F9304600F00D
:103D4000F5F997F82D10284600F0F0F9304600F00C
:103D5000EDF997F82E10284600F0E8F9304600F00B
:103D6000E5F9484600F062FB2F34EB2C7FF49EAE61
:103D700044F27049C0F60009484600F057FB484637
:103D800000F054FB484600F051FB44F2754544F204
:103D900072460027C0F60005C0F6000618F80710A6
:103DA000284608EB070400F0C1F9304600F0BEF9E0
:103DB0006178284600F0BAF9304600F0B7F9A178EA
:103DC000284600F0B3F9304600F0B0F9E178284613
:103DD00000F0ACF9304600F0A9F92179284600F04E
:103DE000A5F9304600F0A2F96179284600F09EF965
:103DF000304600F09BF9A179284600F097F930464B
:103E000000F094F9E179284600F090F9304600F08E
:103E10008DF9217A284600F089F9304600F086F9BC
:103E2000617A284600F082F9304600F07FF9A17AE5
:103E3000284600F07BF9304600F078F9E17A284610
:103E400000F074F9304600F071F9217B284600F04B
:103E50006DF9304600F06AF9617B284600F066F99A
:103E6000304600F063F9A17B284600F05FF9304648
:103E700000F05CF9E17B284600F058F9304600F08C
:103E800055F9217C284600F051F9304600F04EF9F2
:103E9000617C284600F04AF9304600F047F9A17CE1
:103EA000284600F043F9304600F040F9E17C28460E
:103EB00000F03CF9304600F039F9217D284600F049
:103EC00035F9304600F032F9617D284600F02EF9D0
:103ED000304600F02BF9A17D284600F027F9304646
:103EE00000F024F9E17D284600F020F9304600F08A
:103EF0001DF9217E284600F019F9304600F016F928
:103F0000617E284600F012F9304600F00FF9A17EDC
:103F1000284600F00BF9304600F008F9E17E28460B
:103F200000F004F9304600F001F9217F284600F046
:103F3000FDF8304600F0FAF8617F284600F0F6F808
:103F4000304600F0F3F8A17F284600F0EFF8304645
:103F500000F0ECF8E17F284600F0E8F8304600F089
:103F6000E5F894F82010284600F0E0F8304600F01C
:103F7000DDF894F82110284600F0D8F8304600F01B
:103F8000D5F894F82210284600F0D0F8304600F01A
:103F9000CDF894F82310284600F0C8F8304600F019
:103FA000C5F894F82410284600F0C0F8304600F018
:103FB000BDF894F82510284600F0B8F8304600F017
:103FC000B5F894F82610284600F0B0F8304600F016
:103FD000ADF894F82710284600F0A8F8304600F015
:103FE000A5F894F82810284600F0A0F8304600F014
:103FF0009DF894F82910284600F098F8304600F013
:1040000095F894F82A10284600F090F8304600F011
:104010008DF894F82B10284600F088F8304600F010
:1040200085F894F82C10284600F080F8304600F00F
:104030007DF894F82D10284600F078F8304600F00E
:1040400075F894F82E10284600F070F8304600F00D
:104050006DF8484600F0EAF92F37EB2F7FF49EAE5B
:10406000FEE700002DE9F04184B00026C4F202060C
:10407000884630464FF4004100220024FCF73EFD04
:1040800040F2B0550620C2F200058DF807004FF44B
:104090007A770DF107010DF10602284601230097FA
:1040A000FDF78AF930464FF400410122FCF726FD66
:1040B00030464FF400410022FCF720FD02208DF82D
:1040C00009000DF1090102AA284601230097FDF716
:1040D00073F90DF10B010DF10A02284601238DF849
:1040E0000B400097FDF768F90DF10D0103AA284672
:1040F00001238DF80D400097FDF75EF90DF10F01DA
:104100000DF10E02284601238DF80F400097FDF7B0
:1041100053F940F25412C2F20002284641464FF4CD
:104120008073FDF7D5FA04B0BDE8F0810FB4054BFC
:1041300010B503A9044A029800F018F810BC5DF805
:1041400014FB0000AD3900080000002002E008C8A0
:10415000121F08C1002AFAD170477047002001E001
:1041600001C1121F002AFBD1704700002DE9FF4F4B
:104170008DB09B460F460446002606E025280BD04E
:104180005A460F999047641C761C20780028F5D178
:1041900011B03046BDE8F08F0025A84601229849AD
:1041A00000E0054314F8013F203B02FA03F0084207
:1041B000F7D120782E2817D114F8010F45F0040507
:1041C0002A280ED06FF02F022078A0F130010929A3
:1041D0000AD808EB880102EB410100EB0108641CDE
:1041E000F2E757F8048B641C20786C280DD004DCAF
:1041F0004C2812D06A2811D104E074280DD07A28F6
:104200000CD10AE045F4001507E0617845F480150B
:10421000814202D1641C05F58015641C2278692A4C
:1042200045D008DC002AB3D0582A69D0632A10D0C0
:10423000642A08D13BE0702A67D0732A13D0752A0C
:104240005CD0782A5CD010465A460F999047761C6D
:10425000D3E017F8040B8DF8000000208DF8010062
:10426000E946012003E057F8049B4FF0FF3069074F
:104270004FF0000501D40AE06D1C45450DDA85427A
:10428000FADB19F805100029F6D106E06D1C85420D
:10429000FCDB19F805100029F8D12E4404E019F8C8
:1042A000010B5A460F9990476D1EF8D2A5E00A20DF
:1042B0000021CDE90801C5F3025002280DD001CF3D
:1042C000C117031E71F100030DDA4FF0000CD0EBA3
:1042D0000C006CEB01012D2308E0FF1D27F0070700
:1042E000F7E80201EDE72B0504D52B238DF82830E4
:1042F00001233BE0EB0739D02023F7E70A2000E059
:1043000010200021CDE9080107E01020002145F030
:104310000405CDE908014FF00808C5F30250022852
:104320000FD001CF00214FF0000A2B071FD5702AB4
:104330000DD0DDE908C38CF0100C5CEA030C0CD046
:1043400015E0FF1D27F00707F7E80201EBE7402221
:104350008DF828204FF0010A0BE050EA010306D047
:1043600030238DF828308DF8292002239A46582AC8
:1043700004D024A20DF120090B9209E026A2F9E74E
:10438000DDE90823FBF71CFF0B9B9B5C09F8013D53
:1043900050EA0102F4D1ADEB090020300890680723
:1043A00001D44FF001080899884502DDA8EB01000F
:1043B00000E000208046002506E00AA85A46405D3D
:1043C0000F9990476D1C761C5545F6DB04E03020B4
:1043D0005A460F999047761CB8F10001A8F10108E0
:1043E000F5DC05E019F8010B5A460F999047761C49
:1043F0000899481E08900029F4DC641CC5E60000FA
:1044000009280100303132333435363738396162AA
:10441000636465660000000030313233343536376E
:1044200038394142434445460000000010B5044677
:1044300001E0FFF7BBFA14F8010B04490028F8D19A
:10444000BDE810400A20FFF7B1BA000000000020CC
:104450000000000000000000010203040607080934
:1044600000000000010203040006101600061016EA
:104470000D00202000252E3278000000A044000806
:1044800000000020180000004C410008B84400085B
:1044900018000020800A00005C41000800000000B5
:1044A00000000000010000001000000001000000FA
:0844B0000024F40000000000EC
:040000050800018965
:00000001FF
